{
  "_format": "hh-sol-artifact-1",
  "contractName": "NFC",
  "sourceName": "contracts/NFC.sol",
  "abi": [
    {
      "anonymous": false,
      "inputs": [
        {
          "indexed": true,
          "internalType": "address",
          "name": "owner",
          "type": "address"
        },
        {
          "indexed": true,
          "internalType": "address",
          "name": "approved",
          "type": "address"
        },
        {
          "indexed": true,
          "internalType": "uint256",
          "name": "tokenId",
          "type": "uint256"
        }
      ],
      "name": "Approval",
      "type": "event"
    },
    {
      "anonymous": false,
      "inputs": [
        {
          "indexed": true,
          "internalType": "address",
          "name": "owner",
          "type": "address"
        },
        {
          "indexed": true,
          "internalType": "address",
          "name": "operator",
          "type": "address"
        },
        {
          "indexed": false,
          "internalType": "bool",
          "name": "approved",
          "type": "bool"
        }
      ],
      "name": "ApprovalForAll",
      "type": "event"
    },
    {
      "anonymous": false,
      "inputs": [
        {
          "indexed": false,
          "internalType": "address",
          "name": "account",
          "type": "address"
        }
      ],
      "name": "Paused",
      "type": "event"
    },
    {
      "anonymous": false,
      "inputs": [
        {
          "indexed": true,
          "internalType": "bytes32",
          "name": "role",
          "type": "bytes32"
        },
        {
          "indexed": true,
          "internalType": "bytes32",
          "name": "previousAdminRole",
          "type": "bytes32"
        },
        {
          "indexed": true,
          "internalType": "bytes32",
          "name": "newAdminRole",
          "type": "bytes32"
        }
      ],
      "name": "RoleAdminChanged",
      "type": "event"
    },
    {
      "anonymous": false,
      "inputs": [
        {
          "indexed": true,
          "internalType": "bytes32",
          "name": "role",
          "type": "bytes32"
        },
        {
          "indexed": true,
          "internalType": "address",
          "name": "account",
          "type": "address"
        },
        {
          "indexed": true,
          "internalType": "address",
          "name": "sender",
          "type": "address"
        }
      ],
      "name": "RoleGranted",
      "type": "event"
    },
    {
      "anonymous": false,
      "inputs": [
        {
          "indexed": true,
          "internalType": "bytes32",
          "name": "role",
          "type": "bytes32"
        },
        {
          "indexed": true,
          "internalType": "address",
          "name": "account",
          "type": "address"
        },
        {
          "indexed": true,
          "internalType": "address",
          "name": "sender",
          "type": "address"
        }
      ],
      "name": "RoleRevoked",
      "type": "event"
    },
    {
      "anonymous": false,
      "inputs": [
        {
          "indexed": true,
          "internalType": "address",
          "name": "from",
          "type": "address"
        },
        {
          "indexed": true,
          "internalType": "address",
          "name": "to",
          "type": "address"
        },
        {
          "indexed": true,
          "internalType": "uint256",
          "name": "tokenId",
          "type": "uint256"
        }
      ],
      "name": "Transfer",
      "type": "event"
    },
    {
      "anonymous": false,
      "inputs": [
        {
          "indexed": false,
          "internalType": "address",
          "name": "account",
          "type": "address"
        }
      ],
      "name": "Unpaused",
      "type": "event"
    },
    {
      "inputs": [],
      "name": "DEFAULT_ADMIN_ROLE",
      "outputs": [
        {
          "internalType": "bytes32",
          "name": "",
          "type": "bytes32"
        }
      ],
      "stateMutability": "view",
      "type": "function"
    },
    {
      "inputs": [],
      "name": "MINTER_ROLE",
      "outputs": [
        {
          "internalType": "bytes32",
          "name": "",
          "type": "bytes32"
        }
      ],
      "stateMutability": "view",
      "type": "function"
    },
    {
      "inputs": [],
      "name": "PAUSER_ROLE",
      "outputs": [
        {
          "internalType": "bytes32",
          "name": "",
          "type": "bytes32"
        }
      ],
      "stateMutability": "view",
      "type": "function"
    },
    {
      "inputs": [
        {
          "internalType": "address",
          "name": "to",
          "type": "address"
        },
        {
          "internalType": "uint256",
          "name": "tokenId",
          "type": "uint256"
        }
      ],
      "name": "approve",
      "outputs": [],
      "stateMutability": "nonpayable",
      "type": "function"
    },
    {
      "inputs": [
        {
          "internalType": "address",
          "name": "owner",
          "type": "address"
        }
      ],
      "name": "balanceOf",
      "outputs": [
        {
          "internalType": "uint256",
          "name": "",
          "type": "uint256"
        }
      ],
      "stateMutability": "view",
      "type": "function"
    },
    {
      "inputs": [],
      "name": "baseURI",
      "outputs": [
        {
          "internalType": "string",
          "name": "",
          "type": "string"
        }
      ],
      "stateMutability": "view",
      "type": "function"
    },
    {
      "inputs": [
        {
          "internalType": "uint256",
          "name": "tokenId",
          "type": "uint256"
        }
      ],
      "name": "burn",
      "outputs": [],
      "stateMutability": "nonpayable",
      "type": "function"
    },
    {
      "inputs": [
        {
          "internalType": "string",
          "name": "baseURI",
          "type": "string"
        }
      ],
      "name": "changeBaseURI",
      "outputs": [],
      "stateMutability": "nonpayable",
      "type": "function"
    },
    {
      "inputs": [
        {
          "internalType": "string",
          "name": "newContractURI",
          "type": "string"
        }
      ],
      "name": "changeContractURI",
      "outputs": [],
      "stateMutability": "nonpayable",
      "type": "function"
    },
    {
      "inputs": [],
      "name": "contractURI",
      "outputs": [
        {
          "internalType": "string",
          "name": "",
          "type": "string"
        }
      ],
      "stateMutability": "view",
      "type": "function"
    },
    {
      "inputs": [
        {
          "internalType": "uint256",
          "name": "tokenId",
          "type": "uint256"
        }
      ],
      "name": "getApproved",
      "outputs": [
        {
          "internalType": "address",
          "name": "",
          "type": "address"
        }
      ],
      "stateMutability": "view",
      "type": "function"
    },
    {
      "inputs": [
        {
          "internalType": "uint256",
          "name": "tokenId",
          "type": "uint256"
        }
      ],
      "name": "getOriginalOwner",
      "outputs": [
        {
          "internalType": "address",
          "name": "",
          "type": "address"
        }
      ],
      "stateMutability": "view",
      "type": "function"
    },
    {
      "inputs": [
        {
          "internalType": "bytes32",
          "name": "role",
          "type": "bytes32"
        }
      ],
      "name": "getRoleAdmin",
      "outputs": [
        {
          "internalType": "bytes32",
          "name": "",
          "type": "bytes32"
        }
      ],
      "stateMutability": "view",
      "type": "function"
    },
    {
      "inputs": [
        {
          "internalType": "bytes32",
          "name": "role",
          "type": "bytes32"
        },
        {
          "internalType": "uint256",
          "name": "index",
          "type": "uint256"
        }
      ],
      "name": "getRoleMember",
      "outputs": [
        {
          "internalType": "address",
          "name": "",
          "type": "address"
        }
      ],
      "stateMutability": "view",
      "type": "function"
    },
    {
      "inputs": [
        {
          "internalType": "bytes32",
          "name": "role",
          "type": "bytes32"
        }
      ],
      "name": "getRoleMemberCount",
      "outputs": [
        {
          "internalType": "uint256",
          "name": "",
          "type": "uint256"
        }
      ],
      "stateMutability": "view",
      "type": "function"
    },
    {
      "inputs": [
        {
          "internalType": "bytes32",
          "name": "role",
          "type": "bytes32"
        },
        {
          "internalType": "address",
          "name": "account",
          "type": "address"
        }
      ],
      "name": "grantRole",
      "outputs": [],
      "stateMutability": "nonpayable",
      "type": "function"
    },
    {
      "inputs": [
        {
          "internalType": "bytes32",
          "name": "role",
          "type": "bytes32"
        },
        {
          "internalType": "address",
          "name": "account",
          "type": "address"
        }
      ],
      "name": "hasRole",
      "outputs": [
        {
          "internalType": "bool",
          "name": "",
          "type": "bool"
        }
      ],
      "stateMutability": "view",
      "type": "function"
    },
    {
      "inputs": [],
      "name": "init",
      "outputs": [],
      "stateMutability": "nonpayable",
      "type": "function"
    },
    {
      "inputs": [
        {
          "internalType": "string",
          "name": "name",
          "type": "string"
        },
        {
          "internalType": "string",
          "name": "symbol",
          "type": "string"
        },
        {
          "internalType": "string",
          "name": "baseURI",
          "type": "string"
        }
      ],
      "name": "initialize",
      "outputs": [],
      "stateMutability": "nonpayable",
      "type": "function"
    },
    {
      "inputs": [
        {
          "internalType": "address",
          "name": "owner",
          "type": "address"
        },
        {
          "internalType": "address",
          "name": "operator",
          "type": "address"
        }
      ],
      "name": "isApprovedForAll",
      "outputs": [
        {
          "internalType": "bool",
          "name": "",
          "type": "bool"
        }
      ],
      "stateMutability": "view",
      "type": "function"
    },
    {
      "inputs": [
        {
          "internalType": "uint256",
          "name": "tokenId",
          "type": "uint256"
        }
      ],
      "name": "isOriginalOwner",
      "outputs": [
        {
          "internalType": "bool",
          "name": "",
          "type": "bool"
        }
      ],
      "stateMutability": "view",
      "type": "function"
    },
    {
      "inputs": [
        {
          "internalType": "address",
          "name": "to",
          "type": "address"
        }
      ],
      "name": "mint",
      "outputs": [],
      "stateMutability": "nonpayable",
      "type": "function"
    },
    {
      "inputs": [
        {
          "internalType": "bytes32",
          "name": "ticket",
          "type": "bytes32"
        }
      ],
      "name": "mintToken",
      "outputs": [],
      "stateMutability": "nonpayable",
      "type": "function"
    },
    {
      "inputs": [],
      "name": "name",
      "outputs": [
        {
          "internalType": "string",
          "name": "",
          "type": "string"
        }
      ],
      "stateMutability": "view",
      "type": "function"
    },
    {
      "inputs": [
        {
          "internalType": "uint256",
          "name": "tokenId",
          "type": "uint256"
        }
      ],
      "name": "ownerOf",
      "outputs": [
        {
          "internalType": "address",
          "name": "",
          "type": "address"
        }
      ],
      "stateMutability": "view",
      "type": "function"
    },
    {
      "inputs": [],
      "name": "pause",
      "outputs": [],
      "stateMutability": "nonpayable",
      "type": "function"
    },
    {
      "inputs": [],
      "name": "paused",
      "outputs": [
        {
          "internalType": "bool",
          "name": "",
          "type": "bool"
        }
      ],
      "stateMutability": "view",
      "type": "function"
    },
    {
      "inputs": [
        {
          "internalType": "bytes32",
          "name": "role",
          "type": "bytes32"
        },
        {
          "internalType": "address",
          "name": "account",
          "type": "address"
        }
      ],
      "name": "renounceRole",
      "outputs": [],
      "stateMutability": "nonpayable",
      "type": "function"
    },
    {
      "inputs": [
        {
          "internalType": "bytes32",
          "name": "role",
          "type": "bytes32"
        },
        {
          "internalType": "address",
          "name": "account",
          "type": "address"
        }
      ],
      "name": "revokeRole",
      "outputs": [],
      "stateMutability": "nonpayable",
      "type": "function"
    },
    {
      "inputs": [
        {
          "internalType": "address",
          "name": "from",
          "type": "address"
        },
        {
          "internalType": "address",
          "name": "to",
          "type": "address"
        },
        {
          "internalType": "uint256",
          "name": "tokenId",
          "type": "uint256"
        }
      ],
      "name": "safeTransferFrom",
      "outputs": [],
      "stateMutability": "nonpayable",
      "type": "function"
    },
    {
      "inputs": [
        {
          "internalType": "address",
          "name": "from",
          "type": "address"
        },
        {
          "internalType": "address",
          "name": "to",
          "type": "address"
        },
        {
          "internalType": "uint256",
          "name": "tokenId",
          "type": "uint256"
        },
        {
          "internalType": "bytes",
          "name": "_data",
          "type": "bytes"
        }
      ],
      "name": "safeTransferFrom",
      "outputs": [],
      "stateMutability": "nonpayable",
      "type": "function"
    },
    {
      "inputs": [
        {
          "internalType": "address",
          "name": "operator",
          "type": "address"
        },
        {
          "internalType": "bool",
          "name": "approved",
          "type": "bool"
        }
      ],
      "name": "setApprovalForAll",
      "outputs": [],
      "stateMutability": "nonpayable",
      "type": "function"
    },
    {
      "inputs": [
        {
          "internalType": "bytes4",
          "name": "interfaceId",
          "type": "bytes4"
        }
      ],
      "name": "supportsInterface",
      "outputs": [
        {
          "internalType": "bool",
          "name": "",
          "type": "bool"
        }
      ],
      "stateMutability": "view",
      "type": "function"
    },
    {
      "inputs": [],
      "name": "symbol",
      "outputs": [
        {
          "internalType": "string",
          "name": "",
          "type": "string"
        }
      ],
      "stateMutability": "view",
      "type": "function"
    },
    {
      "inputs": [
        {
          "internalType": "uint256",
          "name": "index",
          "type": "uint256"
        }
      ],
      "name": "tokenByIndex",
      "outputs": [
        {
          "internalType": "uint256",
          "name": "",
          "type": "uint256"
        }
      ],
      "stateMutability": "view",
      "type": "function"
    },
    {
      "inputs": [
        {
          "internalType": "address",
          "name": "owner",
          "type": "address"
        },
        {
          "internalType": "uint256",
          "name": "index",
          "type": "uint256"
        }
      ],
      "name": "tokenOfOwnerByIndex",
      "outputs": [
        {
          "internalType": "uint256",
          "name": "",
          "type": "uint256"
        }
      ],
      "stateMutability": "view",
      "type": "function"
    },
    {
      "inputs": [
        {
          "internalType": "uint256",
          "name": "tokenId",
          "type": "uint256"
        }
      ],
      "name": "tokenURI",
      "outputs": [
        {
          "internalType": "string",
          "name": "",
          "type": "string"
        }
      ],
      "stateMutability": "view",
      "type": "function"
    },
    {
      "inputs": [],
      "name": "totalSupply",
      "outputs": [
        {
          "internalType": "uint256",
          "name": "",
          "type": "uint256"
        }
      ],
      "stateMutability": "view",
      "type": "function"
    },
    {
      "inputs": [
        {
          "internalType": "address",
          "name": "from",
          "type": "address"
        },
        {
          "internalType": "address",
          "name": "to",
          "type": "address"
        },
        {
          "internalType": "uint256",
          "name": "tokenId",
          "type": "uint256"
        }
      ],
      "name": "transferFrom",
      "outputs": [],
      "stateMutability": "nonpayable",
      "type": "function"
    },
    {
      "inputs": [],
      "name": "unpause",
      "outputs": [],
      "stateMutability": "nonpayable",
      "type": "function"
    }
  ],
  "bytecode": "0x608060405234801561001057600080fd5b5061544d806100206000396000f3fe608060405234801561001057600080fd5b50600436106102485760003560e01c80636a6278421161013b578063a6487c53116100b8578063d547741f1161007c578063d547741f1461101a578063e1c7392a14611068578063e63ab1e914611072578063e8a3d48514611090578063e985e9c51461111357610248565b8063a6487c5314610c25578063b88d4fde14610e0e578063c87b56dd14610f13578063ca15c87314610fba578063d539139314610ffc57610248565b806391d14854116100ff57806391d1485414610aa257806395d89b4114610b06578063a217fddf14610b89578063a22cb46514610ba7578063a521ad7c14610bf757610248565b80636a627842146109175780636c0360eb1461095b57806370a08231146109de5780638456cb5914610a365780639010d07c14610a4057610248565b806336568abe116101c95780634eeba5be1161018d5780634eeba5be1461074a5780634f6ccce7146107a25780635699b904146107e45780635c975abb1461089f5780636352211e146108bf57610248565b806336568abe1461059b57806339a0c6f9146105e95780633f4ba83a146106a457806342842e0e146106ae57806342966c681461071c57610248565b806323b872dd1161021057806323b872dd146103f7578063248a9ca31461046557806328098d01146104a75780632f2ff15d146104eb5780632f745c591461053957610248565b806301ffc9a71461024d57806306fdde03146102b0578063081812fc14610333578063095ea7b31461038b57806318160ddd146103d9575b600080fd5b6102986004803603602081101561026357600080fd5b8101908080357bffffffffffffffffffffffffffffffffffffffffffffffffffffffff1916906020019092919050505061118d565b60405180821515815260200191505060405180910390f35b6102b86111f5565b6040518080602001828103825283818151815260200191508051906020019080838360005b838110156102f85780820151818401526020810190506102dd565b50505050905090810190601f1680156103255780820380516001836020036101000a031916815260200191505b509250505060405180910390f35b61035f6004803603602081101561034957600080fd5b8101908080359060200190929190505050611297565b604051808273ffffffffffffffffffffffffffffffffffffffff16815260200191505060405180910390f35b6103d7600480360360408110156103a157600080fd5b81019080803573ffffffffffffffffffffffffffffffffffffffff16906020019092919080359060200190929190505050611332565b005b6103e1611476565b6040518082815260200191505060405180910390f35b6104636004803603606081101561040d57600080fd5b81019080803573ffffffffffffffffffffffffffffffffffffffff169060200190929190803573ffffffffffffffffffffffffffffffffffffffff16906020019092919080359060200190929190505050611487565b005b6104916004803603602081101561047b57600080fd5b81019080803590602001909291905050506114fd565b6040518082815260200191505060405180910390f35b6104d3600480360360208110156104bd57600080fd5b810190808035906020019092919050505061151d565b60405180821515815260200191505060405180910390f35b6105376004803603604081101561050157600080fd5b8101908080359060200190929190803573ffffffffffffffffffffffffffffffffffffffff16906020019092919050505061160c565b005b6105856004803603604081101561054f57600080fd5b81019080803573ffffffffffffffffffffffffffffffffffffffff16906020019092919080359060200190929190505050611696565b6040518082815260200191505060405180910390f35b6105e7600480360360408110156105b157600080fd5b8101908080359060200190929190803573ffffffffffffffffffffffffffffffffffffffff1690602001909291905050506116f1565b005b6106a2600480360360208110156105ff57600080fd5b810190808035906020019064010000000081111561061c57600080fd5b82018360208201111561062e57600080fd5b8035906020019184600183028401116401000000008311171561065057600080fd5b91908080601f016020809104026020016040519081016040528093929190818152602001838380828437600081840152601f19601f82011690508083019250505050505050919291929050505061178a565b005b6106ac6117ff565b005b61071a600480360360608110156106c457600080fd5b81019080803573ffffffffffffffffffffffffffffffffffffffff169060200190929190803573ffffffffffffffffffffffffffffffffffffffff1690602001909291908035906020019092919050505061188f565b005b6107486004803603602081101561073257600080fd5b81019080803590602001909291905050506118af565b005b6107766004803603602081101561076057600080fd5b8101908080359060200190929190505050611921565b604051808273ffffffffffffffffffffffffffffffffffffffff16815260200191505060405180910390f35b6107ce600480360360208110156107b857600080fd5b81019080803590602001909291905050506119da565b6040518082815260200191505060405180910390f35b61089d600480360360208110156107fa57600080fd5b810190808035906020019064010000000081111561081757600080fd5b82018360208201111561082957600080fd5b8035906020019184600183028401116401000000008311171561084b57600080fd5b91908080601f016020809104026020016040519081016040528093929190818152602001838380828437600081840152601f19601f8201169050808301925050505050505091929192905050506119fd565b005b6108a7611a81565b60405180821515815260200191505060405180910390f35b6108eb600480360360208110156108d557600080fd5b8101908080359060200190929190505050611a98565b604051808273ffffffffffffffffffffffffffffffffffffffff16815260200191505060405180910390f35b6109596004803603602081101561092d57600080fd5b81019080803573ffffffffffffffffffffffffffffffffffffffff169060200190929190505050611acf565b005b610963611b77565b6040518080602001828103825283818151815260200191508051906020019080838360005b838110156109a3578082015181840152602081019050610988565b50505050905090810190601f1680156109d05780820380516001836020036101000a031916815260200191505b509250505060405180910390f35b610a20600480360360208110156109f457600080fd5b81019080803573ffffffffffffffffffffffffffffffffffffffff169060200190929190505050611c19565b6040518082815260200191505060405180910390f35b610a3e611cee565b005b610a7660048036036040811015610a5657600080fd5b810190808035906020019092919080359060200190929190505050611d7e565b604051808273ffffffffffffffffffffffffffffffffffffffff16815260200191505060405180910390f35b610aee60048036036040811015610ab857600080fd5b8101908080359060200190929190803573ffffffffffffffffffffffffffffffffffffffff169060200190929190505050611db0565b60405180821515815260200191505060405180910390f35b610b0e611de2565b6040518080602001828103825283818151815260200191508051906020019080838360005b83811015610b4e578082015181840152602081019050610b33565b50505050905090810190601f168015610b7b5780820380516001836020036101000a031916815260200191505b509250505060405180910390f35b610b91611e84565b6040518082815260200191505060405180910390f35b610bf560048036036040811015610bbd57600080fd5b81019080803573ffffffffffffffffffffffffffffffffffffffff169060200190929190803515159060200190929190505050611e8b565b005b610c2360048036036020811015610c0d57600080fd5b8101908080359060200190929190505050612041565b005b610e0c60048036036060811015610c3b57600080fd5b8101908080359060200190640100000000811115610c5857600080fd5b820183602082011115610c6a57600080fd5b80359060200191846001830284011164010000000083111715610c8c57600080fd5b91908080601f016020809104026020016040519081016040528093929190818152602001838380828437600081840152601f19601f82011690508083019250505050505050919291929080359060200190640100000000811115610cef57600080fd5b820183602082011115610d0157600080fd5b80359060200191846001830284011164010000000083111715610d2357600080fd5b91908080601f016020809104026020016040519081016040528093929190818152602001838380828437600081840152601f19601f82011690508083019250505050505050919291929080359060200190640100000000811115610d8657600080fd5b820183602082011115610d9857600080fd5b80359060200191846001830284011164010000000083111715610dba57600080fd5b91908080601f016020809104026020016040519081016040528093929190818152602001838380828437600081840152601f19601f82011690508083019250505050505050919291929050505061213d565b005b610f1160048036036080811015610e2457600080fd5b81019080803573ffffffffffffffffffffffffffffffffffffffff169060200190929190803573ffffffffffffffffffffffffffffffffffffffff1690602001909291908035906020019092919080359060200190640100000000811115610e8b57600080fd5b820183602082011115610e9d57600080fd5b80359060200191846001830284011164010000000083111715610ebf57600080fd5b91908080601f016020809104026020016040519081016040528093929190818152602001838380828437600081840152601f19601f820116905080830192505050505050509192919290505050612249565b005b610f3f60048036036020811015610f2957600080fd5b81019080803590602001909291905050506122c1565b6040518080602001828103825283818151815260200191508051906020019080838360005b83811015610f7f578082015181840152602081019050610f64565b50505050905090810190601f168015610fac5780820380516001836020036101000a031916815260200191505b509250505060405180910390f35b610fe660048036036020811015610fd057600080fd5b81019080803590602001909291905050506125aa565b6040518082815260200191505060405180910390f35b6110046125d1565b6040518082815260200191505060405180910390f35b6110666004803603604081101561103057600080fd5b8101908080359060200190929190803573ffffffffffffffffffffffffffffffffffffffff1690602001909291905050506125f5565b005b61107061267f565b005b61107a61283a565b6040518082815260200191505060405180910390f35b61109861285e565b6040518080602001828103825283818151815260200191508051906020019080838360005b838110156110d85780820151818401526020810190506110bd565b50505050905090810190601f1680156111055780820380516001836020036101000a031916815260200191505b509250505060405180910390f35b6111756004803603604081101561112957600080fd5b81019080803573ffffffffffffffffffffffffffffffffffffffff169060200190929190803573ffffffffffffffffffffffffffffffffffffffff169060200190929190505050612901565b60405180821515815260200191505060405180910390f35b600060656000837bffffffffffffffffffffffffffffffffffffffffffffffffffffffff19167bffffffffffffffffffffffffffffffffffffffffffffffffffffffff1916815260200190815260200160002060009054906101000a900460ff169050919050565b6060609c8054600181600116156101000203166002900480601f01602080910402602001604051908101604052809291908181526020018280546001816001161561010002031660029004801561128d5780601f106112625761010080835404028352916020019161128d565b820191906000526020600020905b81548152906001019060200180831161127057829003601f168201915b5050505050905090565b60006112a282612995565b6112f7576040517f08c379a000000000000000000000000000000000000000000000000000000000815260040180806020018281038252602c815260200180615240602c913960400191505060405180910390fd5b609a600083815260200190815260200160002060009054906101000a900473ffffffffffffffffffffffffffffffffffffffff169050919050565b600061133d82611a98565b90508073ffffffffffffffffffffffffffffffffffffffff168373ffffffffffffffffffffffffffffffffffffffff1614156113c4576040517f08c379a00000000000000000000000000000000000000000000000000000000081526004018080602001828103825260218152602001806152ea6021913960400191505060405180910390fd5b8073ffffffffffffffffffffffffffffffffffffffff166113e36129b2565b73ffffffffffffffffffffffffffffffffffffffff16148061141257506114118161140c6129b2565b612901565b5b611467576040517f08c379a00000000000000000000000000000000000000000000000000000000081526004018080602001828103825260388152602001806151656038913960400191505060405180910390fd5b61147183836129ba565b505050565b60006114826098612a73565b905090565b6114986114926129b2565b82612a88565b6114ed576040517f08c379a000000000000000000000000000000000000000000000000000000000815260040180806020018281038252603181526020018061530b6031913960400191505060405180910390fd5b6114f8838383612b7c565b505050565b600060336000838152602001908152602001600020600201549050919050565b600061152882612995565b61159a576040517f08c379a000000000000000000000000000000000000000000000000000000000815260040180806020018281038252601b8152602001807f4552433732313a20746f6b656e20646f65736e2774206578697374000000000081525060200191505060405180910390fd5b6115a382611a98565b73ffffffffffffffffffffffffffffffffffffffff16610191600084815260200190815260200160002060009054906101000a900473ffffffffffffffffffffffffffffffffffffffff1673ffffffffffffffffffffffffffffffffffffffff16149050919050565b611633603360008481526020019081526020016000206002015461162e6129b2565b611db0565b611688576040517f08c379a000000000000000000000000000000000000000000000000000000000815260040180806020018281038252602f815260200180614fff602f913960400191505060405180910390fd5b6116928282612dbf565b5050565b60006116e982609760008673ffffffffffffffffffffffffffffffffffffffff1673ffffffffffffffffffffffffffffffffffffffff168152602001908152602001600020612e5390919063ffffffff16565b905092915050565b6116f96129b2565b73ffffffffffffffffffffffffffffffffffffffff168173ffffffffffffffffffffffffffffffffffffffff161461177c576040517f08c379a000000000000000000000000000000000000000000000000000000000815260040180806020018281038252602f8152602001806153e9602f913960400191505060405180910390fd5b6117868282612e6d565b5050565b61179e6000801b6117996129b2565b611db0565b6117f3576040517f08c379a000000000000000000000000000000000000000000000000000000000815260040180806020018281038252602681526020018061526c6026913960400191505060405180910390fd5b6117fc81612f01565b50565b6118307f65d7a28e3265b37a6474929f336521b332c1681b933f6cb9f3376673440d862a61182b6129b2565b611db0565b611885576040517f08c379a00000000000000000000000000000000000000000000000000000000081526004018080602001828103825260408152602001806153a96040913960400191505060405180910390fd5b61188d612f1b565b565b6118aa83838360405180602001604052806000815250612249565b505050565b6118c06118ba6129b2565b82612a88565b611915576040517f08c379a00000000000000000000000000000000000000000000000000000000081526004018080602001828103825260308152602001806153796030913960400191505060405180910390fd5b61191e8161300e565b50565b600061192c82612995565b61199e576040517f08c379a000000000000000000000000000000000000000000000000000000000815260040180806020018281038252601b8152602001807f4552433732313a20746f6b656e20646f65736e2774206578697374000000000081525060200191505060405180910390fd5b610191600083815260200190815260200160002060009054906101000a900473ffffffffffffffffffffffffffffffffffffffff169050919050565b6000806119f183609861314890919063ffffffff16565b50905080915050919050565b611a116000801b611a0c6129b2565b611db0565b611a66576040517f08c379a000000000000000000000000000000000000000000000000000000000815260040180806020018281038252602681526020018061526c6026913960400191505060405180910390fd5b806101929080519060200190611a7d929190614ecc565b5050565b600060fb60009054906101000a900460ff16905090565b6000611ac8826040518060600160405280602981526020016151c76029913960986131749092919063ffffffff16565b9050919050565b611b007f9f2df0fed2c77648de5860a4cc508cd0818c85b8b8a1ab4ceeef8d981c8956a6611afb6129b2565b611db0565b611b55576040517f08c379a000000000000000000000000000000000000000000000000000000000815260040180806020018281038252603d81526020018061533c603d913960400191505060405180910390fd5b611b6981611b6461015f613193565b6131a1565b611b7461015f613395565b50565b6060609f8054600181600116156101000203166002900480601f016020809104026020016040519081016040528092919081815260200182805460018160011615610100020316600290048015611c0f5780601f10611be457610100808354040283529160200191611c0f565b820191906000526020600020905b815481529060010190602001808311611bf257829003601f168201915b5050505050905090565b60008073ffffffffffffffffffffffffffffffffffffffff168273ffffffffffffffffffffffffffffffffffffffff161415611ca0576040517f08c379a000000000000000000000000000000000000000000000000000000000815260040180806020018281038252602a81526020018061519d602a913960400191505060405180910390fd5b611ce7609760008473ffffffffffffffffffffffffffffffffffffffff1673ffffffffffffffffffffffffffffffffffffffff1681526020019081526020016000206133ab565b9050919050565b611d1f7f65d7a28e3265b37a6474929f336521b332c1681b933f6cb9f3376673440d862a611d1a6129b2565b611db0565b611d74576040517f08c379a000000000000000000000000000000000000000000000000000000000815260040180806020018281038252603e815260200180615081603e913960400191505060405180910390fd5b611d7c6133c0565b565b6000611da882603360008681526020019081526020016000206000016134b490919063ffffffff16565b905092915050565b6000611dda82603360008681526020019081526020016000206000016134ce90919063ffffffff16565b905092915050565b6060609d8054600181600116156101000203166002900480601f016020809104026020016040519081016040528092919081815260200182805460018160011615610100020316600290048015611e7a5780601f10611e4f57610100808354040283529160200191611e7a565b820191906000526020600020905b815481529060010190602001808311611e5d57829003601f168201915b5050505050905090565b6000801b81565b611e936129b2565b73ffffffffffffffffffffffffffffffffffffffff168273ffffffffffffffffffffffffffffffffffffffff161415611f34576040517f08c379a00000000000000000000000000000000000000000000000000000000081526004018080602001828103825260198152602001807f4552433732313a20617070726f766520746f2063616c6c65720000000000000081525060200191505060405180910390fd5b80609b6000611f416129b2565b73ffffffffffffffffffffffffffffffffffffffff1673ffffffffffffffffffffffffffffffffffffffff16815260200190815260200160002060008473ffffffffffffffffffffffffffffffffffffffff1673ffffffffffffffffffffffffffffffffffffffff16815260200190815260200160002060006101000a81548160ff0219169083151502179055508173ffffffffffffffffffffffffffffffffffffffff16611fee6129b2565b73ffffffffffffffffffffffffffffffffffffffff167f17307eab39ab6107e8899845ad3d59bd9653f200f220920489ca2b5937696c318360405180821515815260200191505060405180910390a35050565b6000801b8114156120ba576040517f08c379a00000000000000000000000000000000000000000000000000000000081526004018080602001828103825260168152602001807f5469636b65742063616e6e6f7420626520626c616e6b0000000000000000000081525060200191505060405180910390fd5b60008160001c90506120d96120cd6129b2565b8263ffffffff166134fe565b6120e16129b2565b61019160008363ffffffff16815260200190815260200160002060006101000a81548173ffffffffffffffffffffffffffffffffffffffff021916908373ffffffffffffffffffffffffffffffffffffffff1602179055505050565b600060019054906101000a900460ff168061215c575061215b61351c565b5b80612172575060008054906101000a900460ff16155b6121c7576040517f08c379a000000000000000000000000000000000000000000000000000000000815260040180806020018281038252602e8152602001806151f0602e913960400191505060405180910390fd5b60008060019054906101000a900460ff161590508015612217576001600060016101000a81548160ff02191690831515021790555060016000806101000a81548160ff0219169083151502179055505b612222848484613533565b80156122435760008060016101000a81548160ff0219169083151502179055505b50505050565b61225a6122546129b2565b83612a88565b6122af576040517f08c379a000000000000000000000000000000000000000000000000000000000815260040180806020018281038252603181526020018061530b6031913960400191505060405180910390fd5b6122bb84848484613679565b50505050565b60606122cc82612995565b612321576040517f08c379a000000000000000000000000000000000000000000000000000000000815260040180806020018281038252602f8152602001806152bb602f913960400191505060405180910390fd5b6060609e60008481526020019081526020016000208054600181600116156101000203166002900480601f0160208091040260200160405190810160405280929190818152602001828054600181600116156101000203166002900480156123ca5780601f1061239f576101008083540402835291602001916123ca565b820191906000526020600020905b8154815290600101906020018083116123ad57829003601f168201915b505050505090506000609f80546001816001161561010002031660029004905014156123f957809150506125a5565b6000815111156124d257609f8160405160200180838054600181600116156101000203166002900480156124645780601f10612442576101008083540402835291820191612464565b820191906000526020600020905b815481529060010190602001808311612450575b505082805190602001908083835b602083106124955780518252602082019150602081019050602083039250612472565b6001836020036101000a038019825116818451168082178552505050505050905001925050506040516020818303038152906040529150506125a5565b609f6124dd846136eb565b604051602001808380546001816001161561010002031660029004801561253b5780601f1061251957610100808354040283529182019161253b565b820191906000526020600020905b815481529060010190602001808311612527575b505082805190602001908083835b6020831061256c5780518252602082019150602081019050602083039250612549565b6001836020036101000a038019825116818451168082178552505050505050905001925050506040516020818303038152906040529150505b919050565b60006125ca60336000848152602001908152602001600020600001613832565b9050919050565b7f9f2df0fed2c77648de5860a4cc508cd0818c85b8b8a1ab4ceeef8d981c8956a681565b61261c60336000848152602001908152602001600020600201546126176129b2565b611db0565b612671576040517f08c379a00000000000000000000000000000000000000000000000000000000081526004018080602001828103825260308152602001806151356030913960400191505060405180910390fd5b61267b8282612e6d565b5050565b600060019054906101000a900460ff168061269e575061269d61351c565b5b806126b4575060008054906101000a900460ff16155b612709576040517f08c379a000000000000000000000000000000000000000000000000000000000815260040180806020018281038252602e8152602001806151f0602e913960400191505060405180910390fd5b60008060019054906101000a900460ff161590508015612759576001600060016101000a81548160ff02191690831515021790555060016000806101000a81548160ff0219169083151502179055505b6127e66040518060400160405280601681526020017f537065637472616c2043726564697420546f6b656e73000000000000000000008152506040518060400160405280600381526020017f4e4643000000000000000000000000000000000000000000000000000000000081525060405180606001604052806021815260200161506060219139613533565b604051806060016040528060218152602001615060602191396101929080519060200190612815929190614ecc565b5080156128375760008060016101000a81548160ff0219169083151502179055505b50565b7f65d7a28e3265b37a6474929f336521b332c1681b933f6cb9f3376673440d862a81565b60606101928054600181600116156101000203166002900480601f0160208091040260200160405190810160405280929190818152602001828054600181600116156101000203166002900480156128f75780601f106128cc576101008083540402835291602001916128f7565b820191906000526020600020905b8154815290600101906020018083116128da57829003601f168201915b5050505050905090565b6000609b60008473ffffffffffffffffffffffffffffffffffffffff1673ffffffffffffffffffffffffffffffffffffffff16815260200190815260200160002060008373ffffffffffffffffffffffffffffffffffffffff1673ffffffffffffffffffffffffffffffffffffffff16815260200190815260200160002060009054906101000a900460ff16905092915050565b60006129ab82609861384790919063ffffffff16565b9050919050565b600033905090565b81609a600083815260200190815260200160002060006101000a81548173ffffffffffffffffffffffffffffffffffffffff021916908373ffffffffffffffffffffffffffffffffffffffff160217905550808273ffffffffffffffffffffffffffffffffffffffff16612a2d83611a98565b73ffffffffffffffffffffffffffffffffffffffff167f8c5be1e5ebec7d5bd14f71427d1e84f3dd0314c0f7b2291e5b200ac8c7c3b92560405160405180910390a45050565b6000612a8182600001613861565b9050919050565b6000612a9382612995565b612ae8576040517f08c379a000000000000000000000000000000000000000000000000000000000815260040180806020018281038252602c815260200180615109602c913960400191505060405180910390fd5b6000612af383611a98565b90508073ffffffffffffffffffffffffffffffffffffffff168473ffffffffffffffffffffffffffffffffffffffff161480612b6257508373ffffffffffffffffffffffffffffffffffffffff16612b4a84611297565b73ffffffffffffffffffffffffffffffffffffffff16145b80612b735750612b728185612901565b5b91505092915050565b8273ffffffffffffffffffffffffffffffffffffffff16612b9c82611a98565b73ffffffffffffffffffffffffffffffffffffffff1614612c08576040517f08c379a00000000000000000000000000000000000000000000000000000000081526004018080602001828103825260298152602001806152926029913960400191505060405180910390fd5b600073ffffffffffffffffffffffffffffffffffffffff168273ffffffffffffffffffffffffffffffffffffffff161415612c8e576040517f08c379a00000000000000000000000000000000000000000000000000000000081526004018080602001828103825260248152602001806150bf6024913960400191505060405180910390fd5b612c99838383613872565b612ca46000826129ba565b612cf581609760008673ffffffffffffffffffffffffffffffffffffffff1673ffffffffffffffffffffffffffffffffffffffff16815260200190815260200160002061388290919063ffffffff16565b50612d4781609760008573ffffffffffffffffffffffffffffffffffffffff1673ffffffffffffffffffffffffffffffffffffffff16815260200190815260200160002061389c90919063ffffffff16565b50612d5e818360986138b69092919063ffffffff16565b50808273ffffffffffffffffffffffffffffffffffffffff168473ffffffffffffffffffffffffffffffffffffffff167fddf252ad1be2c89b69c2b068fc378daa952ba7f163c4a11628f55a4df523b3ef60405160405180910390a4505050565b612de781603360008581526020019081526020016000206000016138eb90919063ffffffff16565b15612e4f57612df46129b2565b73ffffffffffffffffffffffffffffffffffffffff168173ffffffffffffffffffffffffffffffffffffffff16837f2f8788117e7eff1d82e926ec794901d17c78024a50270940304540a733656f0d60405160405180910390a45b5050565b6000612e62836000018361391b565b60001c905092915050565b612e95816033600085815260200190815260200160002060000161399e90919063ffffffff16565b15612efd57612ea26129b2565b73ffffffffffffffffffffffffffffffffffffffff168173ffffffffffffffffffffffffffffffffffffffff16837ff6391f5c32d9c69d2a47ea670b442974b53935d1edc7fd64eb21e047a839171b60405160405180910390a45b5050565b80609f9080519060200190612f17929190614ecc565b5050565b60fb60009054906101000a900460ff16612f9d576040517f08c379a00000000000000000000000000000000000000000000000000000000081526004018080602001828103825260148152602001807f5061757361626c653a206e6f742070617573656400000000000000000000000081525060200191505060405180910390fd5b600060fb60006101000a81548160ff0219169083151502179055507f5db9ee0a495bf2e6ff9c91a7834c1ba4fdd244a5e8aa4e537bd38aeae4b073aa612fe16129b2565b604051808273ffffffffffffffffffffffffffffffffffffffff16815260200191505060405180910390a1565b600061301982611a98565b905061302781600084613872565b6130326000836129ba565b6000609e60008481526020019081526020016000208054600181600116156101000203166002900490501461308157609e600083815260200190815260200160002060006130809190614f4c565b5b6130d282609760008473ffffffffffffffffffffffffffffffffffffffff1673ffffffffffffffffffffffffffffffffffffffff16815260200190815260200160002061388290919063ffffffff16565b506130e78260986139ce90919063ffffffff16565b5081600073ffffffffffffffffffffffffffffffffffffffff168273ffffffffffffffffffffffffffffffffffffffff167fddf252ad1be2c89b69c2b068fc378daa952ba7f163c4a11628f55a4df523b3ef60405160405180910390a45050565b60008060008061315b86600001866139e8565b915091508160001c8160001c9350935050509250929050565b6000613187846000018460001b84613a81565b60001c90509392505050565b600081600001549050919050565b600073ffffffffffffffffffffffffffffffffffffffff168273ffffffffffffffffffffffffffffffffffffffff161415613244576040517f08c379a00000000000000000000000000000000000000000000000000000000081526004018080602001828103825260208152602001807f4552433732313a206d696e7420746f20746865207a65726f206164647265737381525060200191505060405180910390fd5b61324d81612995565b156132c0576040517f08c379a000000000000000000000000000000000000000000000000000000000815260040180806020018281038252601c8152602001807f4552433732313a20746f6b656e20616c7265616479206d696e7465640000000081525060200191505060405180910390fd5b6132cc60008383613872565b61331d81609760008573ffffffffffffffffffffffffffffffffffffffff1673ffffffffffffffffffffffffffffffffffffffff16815260200190815260200160002061389c90919063ffffffff16565b50613334818360986138b69092919063ffffffff16565b50808273ffffffffffffffffffffffffffffffffffffffff16600073ffffffffffffffffffffffffffffffffffffffff167fddf252ad1be2c89b69c2b068fc378daa952ba7f163c4a11628f55a4df523b3ef60405160405180910390a45050565b6001816000016000828254019250508190555050565b60006133b982600001613b77565b9050919050565b60fb60009054906101000a900460ff1615613443576040517f08c379a00000000000000000000000000000000000000000000000000000000081526004018080602001828103825260108152602001807f5061757361626c653a207061757365640000000000000000000000000000000081525060200191505060405180910390fd5b600160fb60006101000a81548160ff0219169083151502179055507f62e78cea01bee320cd4e420270b5ea74000d11b0c9f74754ebdbfc544b05a2586134876129b2565b604051808273ffffffffffffffffffffffffffffffffffffffff16815260200191505060405180910390a1565b60006134c3836000018361391b565b60001c905092915050565b60006134f6836000018373ffffffffffffffffffffffffffffffffffffffff1660001b613b88565b905092915050565b613518828260405180602001604052806000815250613bab565b5050565b6000803090506000813b9050600081149250505090565b600060019054906101000a900460ff1680613552575061355161351c565b5b80613568575060008054906101000a900460ff16155b6135bd576040517f08c379a000000000000000000000000000000000000000000000000000000000815260040180806020018281038252602e8152602001806151f0602e913960400191505060405180910390fd5b60008060019054906101000a900460ff16159050801561360d576001600060016101000a81548160ff02191690831515021790555060016000806101000a81548160ff0219169083151502179055505b613615613c1c565b61361d613d1a565b613625613e18565b61362f8484613f26565b613637614084565b61363f614182565b61364761429b565b613652848484614399565b80156136735760008060016101000a81548160ff0219169083151502179055505b50505050565b613684848484612b7c565b61369084848484614519565b6136e5576040517f08c379a000000000000000000000000000000000000000000000000000000000815260040180806020018281038252603281526020018061502e6032913960400191505060405180910390fd5b50505050565b60606000821415613733576040518060400160405280600181526020017f3000000000000000000000000000000000000000000000000000000000000000815250905061382d565b600082905060005b6000821461375d578080600101915050600a828161375557fe5b04915061373b565b60608167ffffffffffffffff8111801561377657600080fd5b506040519080825280601f01601f1916602001820160405280156137a95781602001600182028036833780820191505090505b50905060006001830390508593505b6000841461382557600a84816137ca57fe5b0660300160f81b828280600190039350815181106137e457fe5b60200101907effffffffffffffffffffffffffffffffffffffffffffffffffffffffffffff1916908160001a905350600a848161381d57fe5b0493506137b8565b819450505050505b919050565b600061384082600001613b77565b9050919050565b6000613859836000018360001b614732565b905092915050565b600081600001805490509050919050565b61387d838383614755565b505050565b6000613894836000018360001b6147c3565b905092915050565b60006138ae836000018360001b6148ab565b905092915050565b60006138e2846000018460001b8473ffffffffffffffffffffffffffffffffffffffff1660001b61491b565b90509392505050565b6000613913836000018373ffffffffffffffffffffffffffffffffffffffff1660001b6148ab565b905092915050565b60008183600001805490501161397c576040517f08c379a0000000000000000000000000000000000000000000000000000000008152600401808060200182810382526022815260200180614fb26022913960400191505060405180910390fd5b82600001828154811061398b57fe5b9060005260206000200154905092915050565b60006139c6836000018373ffffffffffffffffffffffffffffffffffffffff1660001b6147c3565b905092915050565b60006139e0836000018360001b6149f7565b905092915050565b60008082846000018054905011613a4a576040517f08c379a000000000000000000000000000000000000000000000000000000000815260040180806020018281038252602281526020018061521e6022913960400191505060405180910390fd5b6000846000018481548110613a5b57fe5b906000526020600020906002020190508060000154816001015492509250509250929050565b60008084600101600085815260200190815260200160002054905060008114158390613b48576040517f08c379a00000000000000000000000000000000000000000000000000000000081526004018080602001828103825283818151815260200191508051906020019080838360005b83811015613b0d578082015181840152602081019050613af2565b50505050905090810190601f168015613b3a5780820380516001836020036101000a031916815260200191505b509250505060405180910390fd5b50846000016001820381548110613b5b57fe5b9060005260206000209060020201600101549150509392505050565b600081600001805490509050919050565b600080836001016000848152602001908152602001600020541415905092915050565b613bb583836131a1565b613bc26000848484614519565b613c17576040517f08c379a000000000000000000000000000000000000000000000000000000000815260040180806020018281038252603281526020018061502e6032913960400191505060405180910390fd5b505050565b600060019054906101000a900460ff1680613c3b5750613c3a61351c565b5b80613c51575060008054906101000a900460ff16155b613ca6576040517f08c379a000000000000000000000000000000000000000000000000000000000815260040180806020018281038252602e8152602001806151f0602e913960400191505060405180910390fd5b60008060019054906101000a900460ff161590508015613cf6576001600060016101000a81548160ff02191690831515021790555060016000806101000a81548160ff0219169083151502179055505b8015613d175760008060016101000a81548160ff0219169083151502179055505b50565b600060019054906101000a900460ff1680613d395750613d3861351c565b5b80613d4f575060008054906101000a900460ff16155b613da4576040517f08c379a000000000000000000000000000000000000000000000000000000000815260040180806020018281038252602e8152602001806151f0602e913960400191505060405180910390fd5b60008060019054906101000a900460ff161590508015613df4576001600060016101000a81548160ff02191690831515021790555060016000806101000a81548160ff0219169083151502179055505b8015613e155760008060016101000a81548160ff0219169083151502179055505b50565b600060019054906101000a900460ff1680613e375750613e3661351c565b5b80613e4d575060008054906101000a900460ff16155b613ea2576040517f08c379a000000000000000000000000000000000000000000000000000000000815260040180806020018281038252602e8152602001806151f0602e913960400191505060405180910390fd5b60008060019054906101000a900460ff161590508015613ef2576001600060016101000a81548160ff02191690831515021790555060016000806101000a81548160ff0219169083151502179055505b613f026301ffc9a760e01b614b10565b8015613f235760008060016101000a81548160ff0219169083151502179055505b50565b600060019054906101000a900460ff1680613f455750613f4461351c565b5b80613f5b575060008054906101000a900460ff16155b613fb0576040517f08c379a000000000000000000000000000000000000000000000000000000000815260040180806020018281038252602e8152602001806151f0602e913960400191505060405180910390fd5b60008060019054906101000a900460ff161590508015614000576001600060016101000a81548160ff02191690831515021790555060016000806101000a81548160ff0219169083151502179055505b82609c9080519060200190614016929190614ecc565b5081609d908051906020019061402d929190614ecc565b5061403e6380ac58cd60e01b614b10565b61404e635b5e139f60e01b614b10565b61405e63780e9d6360e01b614b10565b801561407f5760008060016101000a81548160ff0219169083151502179055505b505050565b600060019054906101000a900460ff16806140a357506140a261351c565b5b806140b9575060008054906101000a900460ff16155b61410e576040517f08c379a000000000000000000000000000000000000000000000000000000000815260040180806020018281038252602e8152602001806151f0602e913960400191505060405180910390fd5b60008060019054906101000a900460ff16159050801561415e576001600060016101000a81548160ff02191690831515021790555060016000806101000a81548160ff0219169083151502179055505b801561417f5760008060016101000a81548160ff0219169083151502179055505b50565b600060019054906101000a900460ff16806141a157506141a061351c565b5b806141b7575060008054906101000a900460ff16155b61420c576040517f08c379a000000000000000000000000000000000000000000000000000000000815260040180806020018281038252602e8152602001806151f0602e913960400191505060405180910390fd5b60008060019054906101000a900460ff16159050801561425c576001600060016101000a81548160ff02191690831515021790555060016000806101000a81548160ff0219169083151502179055505b600060fb60006101000a81548160ff02191690831515021790555080156142985760008060016101000a81548160ff0219169083151502179055505b50565b600060019054906101000a900460ff16806142ba57506142b961351c565b5b806142d0575060008054906101000a900460ff16155b614325576040517f08c379a000000000000000000000000000000000000000000000000000000000815260040180806020018281038252602e8152602001806151f0602e913960400191505060405180910390fd5b60008060019054906101000a900460ff161590508015614375576001600060016101000a81548160ff02191690831515021790555060016000806101000a81548160ff0219169083151502179055505b80156143965760008060016101000a81548160ff0219169083151502179055505b50565b600060019054906101000a900460ff16806143b857506143b761351c565b5b806143ce575060008054906101000a900460ff16155b614423576040517f08c379a000000000000000000000000000000000000000000000000000000000815260040180806020018281038252602e8152602001806151f0602e913960400191505060405180910390fd5b60008060019054906101000a900460ff161590508015614473576001600060016101000a81548160ff02191690831515021790555060016000806101000a81548160ff0219169083151502179055505b6144876000801b6144826129b2565b614c19565b6144b87f9f2df0fed2c77648de5860a4cc508cd0818c85b8b8a1ab4ceeef8d981c8956a66144b36129b2565b614c19565b6144e97f65d7a28e3265b37a6474929f336521b332c1681b933f6cb9f3376673440d862a6144e46129b2565b614c19565b6144f282612f01565b80156145135760008060016101000a81548160ff0219169083151502179055505b50505050565b600061453a8473ffffffffffffffffffffffffffffffffffffffff16614c27565b614547576001905061472a565b60606146b163150b7a0260e01b61455c6129b2565b888787604051602401808573ffffffffffffffffffffffffffffffffffffffff1681526020018473ffffffffffffffffffffffffffffffffffffffff16815260200183815260200180602001828103825283818151815260200191508051906020019080838360005b838110156145e05780820151818401526020810190506145c5565b50505050905090810190601f16801561460d5780820380516001836020036101000a031916815260200191505b5095505050505050604051602081830303815290604052907bffffffffffffffffffffffffffffffffffffffffffffffffffffffff19166020820180517bffffffffffffffffffffffffffffffffffffffffffffffffffffffff838183161783525050505060405180606001604052806032815260200161502e603291398773ffffffffffffffffffffffffffffffffffffffff16614c3a9092919063ffffffff16565b905060008180602001905160208110156146ca57600080fd5b8101908080519060200190929190505050905063150b7a0260e01b7bffffffffffffffffffffffffffffffffffffffffffffffffffffffff1916817bffffffffffffffffffffffffffffffffffffffffffffffffffffffff191614925050505b949350505050565b600080836001016000848152602001908152602001600020541415905092915050565b614760838383614c52565b614768611a81565b156147be576040517f08c379a000000000000000000000000000000000000000000000000000000000815260040180806020018281038252602b815260200180614fd4602b913960400191505060405180910390fd5b505050565b6000808360010160008481526020019081526020016000205490506000811461489f576000600182039050600060018660000180549050039050600086600001828154811061480e57fe5b906000526020600020015490508087600001848154811061482b57fe5b906000526020600020018190555060018301876001016000838152602001908152602001600020819055508660000180548061486357fe5b600190038181906000526020600020016000905590558660010160008781526020019081526020016000206000905560019450505050506148a5565b60009150505b92915050565b60006148b78383613b88565b614910578260000182908060018154018082558091505060019003906000526020600020016000909190919091505582600001805490508360010160008481526020019081526020016000208190555060019050614915565b600090505b92915050565b60008084600101600085815260200190815260200160002054905060008114156149c2578460000160405180604001604052808681526020018581525090806001815401808255809150506001900390600052602060002090600202016000909190919091506000820151816000015560208201518160010155505084600001805490508560010160008681526020019081526020016000208190555060019150506149f0565b828560000160018303815481106149d557fe5b90600052602060002090600202016001018190555060009150505b9392505050565b60008083600101600084815260200190815260200160002054905060008114614b045760006001820390506000600186600001805490500390506000866000018281548110614a4257fe5b9060005260206000209060020201905080876000018481548110614a6257fe5b9060005260206000209060020201600082015481600001556001820154816001015590505060018301876001016000836000015481526020019081526020016000208190555086600001805480614ab557fe5b6001900381819060005260206000209060020201600080820160009055600182016000905550509055866001016000878152602001908152602001600020600090556001945050505050614b0a565b60009150505b92915050565b63ffffffff60e01b817bffffffffffffffffffffffffffffffffffffffffffffffffffffffff19161415614bac576040517f08c379a000000000000000000000000000000000000000000000000000000000815260040180806020018281038252601c8152602001807f4552433136353a20696e76616c696420696e746572666163652069640000000081525060200191505060405180910390fd5b600160656000837bffffffffffffffffffffffffffffffffffffffffffffffffffffffff19167bffffffffffffffffffffffffffffffffffffffffffffffffffffffff1916815260200190815260200160002060006101000a81548160ff02191690831515021790555050565b614c238282612dbf565b5050565b600080823b905060008111915050919050565b6060614c498484600085614c57565b90509392505050565b505050565b606082471015614cb2576040517f08c379a00000000000000000000000000000000000000000000000000000000081526004018080602001828103825260268152602001806150e36026913960400191505060405180910390fd5b614cbb85614c27565b614d2d576040517f08c379a000000000000000000000000000000000000000000000000000000000815260040180806020018281038252601d8152602001807f416464726573733a2063616c6c20746f206e6f6e2d636f6e747261637400000081525060200191505060405180910390fd5b600060608673ffffffffffffffffffffffffffffffffffffffff1685876040518082805190602001908083835b60208310614d7d5780518252602082019150602081019050602083039250614d5a565b6001836020036101000a03801982511681845116808217855250505050505090500191505060006040518083038185875af1925050503d8060008114614ddf576040519150601f19603f3d011682016040523d82523d6000602084013e614de4565b606091505b5091509150614df4828286614e00565b92505050949350505050565b60608315614e1057829050614ec5565b600083511115614e235782518084602001fd5b816040517f08c379a00000000000000000000000000000000000000000000000000000000081526004018080602001828103825283818151815260200191508051906020019080838360005b83811015614e8a578082015181840152602081019050614e6f565b50505050905090810190601f168015614eb75780820380516001836020036101000a031916815260200191505b509250505060405180910390fd5b9392505050565b828054600181600116156101000203166002900490600052602060002090601f016020900481019282601f10614f0d57805160ff1916838001178555614f3b565b82800160010185558215614f3b579182015b82811115614f3a578251825591602001919060010190614f1f565b5b509050614f489190614f94565b5090565b50805460018160011615610100020316600290046000825580601f10614f725750614f91565b601f016020900490600052602060002090810190614f909190614f94565b5b50565b5b80821115614fad576000816000905550600101614f95565b509056fe456e756d657261626c655365743a20696e646578206f7574206f6620626f756e64734552433732315061757361626c653a20746f6b656e207472616e73666572207768696c6520706175736564416363657373436f6e74726f6c3a2073656e646572206d75737420626520616e2061646d696e20746f206772616e744552433732313a207472616e7366657220746f206e6f6e20455243373231526563656976657220696d706c656d656e746572687474703a2f2f3136352e3233322e3138302e36352f6170692f7375626d69742f4552433732315072657365744d696e7465725061757365724175746f49643a206d75737420686176652070617573657220726f6c6520746f2070617573654552433732313a207472616e7366657220746f20746865207a65726f2061646472657373416464726573733a20696e73756666696369656e742062616c616e636520666f722063616c6c4552433732313a206f70657261746f7220717565727920666f72206e6f6e6578697374656e7420746f6b656e416363657373436f6e74726f6c3a2073656e646572206d75737420626520616e2061646d696e20746f207265766f6b654552433732313a20617070726f76652063616c6c6572206973206e6f74206f776e6572206e6f7220617070726f76656420666f7220616c6c4552433732313a2062616c616e636520717565727920666f7220746865207a65726f20616464726573734552433732313a206f776e657220717565727920666f72206e6f6e6578697374656e7420746f6b656e496e697469616c697a61626c653a20636f6e747261637420697320616c726561647920696e697469616c697a6564456e756d657261626c654d61703a20696e646578206f7574206f6620626f756e64734552433732313a20617070726f76656420717565727920666f72206e6f6e6578697374656e7420746f6b656e4552433732313a206d75737420686176652061646d696e20726f6c6520746f206368616e67654552433732313a207472616e73666572206f6620746f6b656e2074686174206973206e6f74206f776e4552433732314d657461646174613a2055524920717565727920666f72206e6f6e6578697374656e7420746f6b656e4552433732313a20617070726f76616c20746f2063757272656e74206f776e65724552433732313a207472616e736665722063616c6c6572206973206e6f74206f776e6572206e6f7220617070726f7665644552433732315072657365744d696e7465725061757365724175746f49643a206d7573742068617665206d696e74657220726f6c6520746f206d696e744552433732314275726e61626c653a2063616c6c6572206973206e6f74206f776e6572206e6f7220617070726f7665644552433732315072657365744d696e7465725061757365724175746f49643a206d75737420686176652070617573657220726f6c6520746f20756e7061757365416363657373436f6e74726f6c3a2063616e206f6e6c792072656e6f756e636520726f6c657320666f722073656c66a26469706673582212205692199fb78800532b9c78acabcc6f27ebd80bcc014f389495f69f8d9ddedcad64736f6c63430007000033",
  "linkReferences": {},
  "deployedLinkReferences": {}
}